:10000000170102001301010097020100938282FF91
:10001000170301001303430083230300170E01009D
:10002000130ECEFF832E0E00635C7000138502005A
:1000300093850300EF000001930E05002320D301F8
:100040006F000000130141FF2320A1002322B10013
:1000500023241100130C0000930C000063DEBC008D
:10006000139D2C00B30DA50103A90D00330C2C0129
:10007000938C1C006FF09FFE13050C00EF00000135
:10008000832081001301C10067800000130181FFFC
:100090002320A100232211003305A5028320410063
:0800A0001301810067800000DC
:020000021000EC
:1000000001000000020000000300000004000000E6
:080010000500000005000000DE
:00000001FF
